{
  "contractName": "Crowdfund",
  "abi": [
    {
      "inputs": [
        {
          "internalType": "string",
          "name": "_name",
          "type": "string"
        },
        {
          "internalType": "string",
          "name": "_symbol",
          "type": "string"
        },
        {
          "internalType": "uint8",
          "name": "_decimals",
          "type": "uint8"
        },
        {
          "internalType": "uint256",
          "name": "_totalSupply",
          "type": "uint256"
        },
        {
          "internalType": "uint256",
          "name": "_fundingGoal",
          "type": "uint256"
        }
      ],
      "stateMutability": "nonpayable",
      "type": "constructor"
    },
    {
      "anonymous": false,
      "inputs": [
        {
          "indexed": false,
          "internalType": "address",
          "name": "contributor",
          "type": "address"
        },
        {
          "indexed": false,
          "internalType": "uint256",
          "name": "value",
          "type": "uint256"
        }
      ],
      "name": "Refund",
      "type": "event"
    },
    {
      "anonymous": false,
      "inputs": [
        {
          "indexed": false,
          "internalType": "address",
          "name": "from",
          "type": "address"
        },
        {
          "indexed": false,
          "internalType": "address",
          "name": "to",
          "type": "address"
        },
        {
          "indexed": false,
          "internalType": "uint256",
          "name": "value",
          "type": "uint256"
        }
      ],
      "name": "Transfer",
      "type": "event"
    },
    {
      "inputs": [
        {
          "internalType": "address",
          "name": "",
          "type": "address"
        }
      ],
      "name": "balanceOf",
      "outputs": [
        {
          "internalType": "uint256",
          "name": "",
          "type": "uint256"
        }
      ],
      "stateMutability": "view",
      "type": "function"
    },
    {
      "inputs": [],
      "name": "decimals",
      "outputs": [
        {
          "internalType": "uint8",
          "name": "",
          "type": "uint8"
        }
      ],
      "stateMutability": "view",
      "type": "function"
    },
    {
      "inputs": [],
      "name": "fundingGoal",
      "outputs": [
        {
          "internalType": "uint256",
          "name": "",
          "type": "uint256"
        }
      ],
      "stateMutability": "view",
      "type": "function"
    },
    {
      "inputs": [],
      "name": "fundsRaised",
      "outputs": [
        {
          "internalType": "uint256",
          "name": "",
          "type": "uint256"
        }
      ],
      "stateMutability": "view",
      "type": "function"
    },
    {
      "inputs": [],
      "name": "goalReached",
      "outputs": [
        {
          "internalType": "bool",
          "name": "",
          "type": "bool"
        }
      ],
      "stateMutability": "view",
      "type": "function"
    },
    {
      "inputs": [],
      "name": "name",
      "outputs": [
        {
          "internalType": "string",
          "name": "",
          "type": "string"
        }
      ],
      "stateMutability": "view",
      "type": "function"
    },
    {
      "inputs": [],
      "name": "refundPeriod",
      "outputs": [
        {
          "internalType": "bool",
          "name": "",
          "type": "bool"
        }
      ],
      "stateMutability": "view",
      "type": "function"
    },
    {
      "inputs": [],
      "name": "symbol",
      "outputs": [
        {
          "internalType": "string",
          "name": "",
          "type": "string"
        }
      ],
      "stateMutability": "view",
      "type": "function"
    },
    {
      "inputs": [],
      "name": "totalSupply",
      "outputs": [
        {
          "internalType": "uint256",
          "name": "",
          "type": "uint256"
        }
      ],
      "stateMutability": "view",
      "type": "function"
    },
    {
      "inputs": [
        {
          "internalType": "address",
          "name": "_to",
          "type": "address"
        },
        {
          "internalType": "uint256",
          "name": "_value",
          "type": "uint256"
        }
      ],
      "name": "transfer",
      "outputs": [
        {
          "internalType": "bool",
          "name": "",
          "type": "bool"
        }
      ],
      "stateMutability": "nonpayable",
      "type": "function"
    },
    {
      "inputs": [],
      "name": "contribute",
      "outputs": [],
      "stateMutability": "payable",
      "type": "function"
    },
    {
      "inputs": [],
      "name": "startRefundPeriod",
      "outputs": [],
      "stateMutability": "nonpayable",
      "type": "function"
    },
    {
      "inputs": [
        {
          "internalType": "address",
          "name": "_contributor",
          "type": "address"
        }
      ],
      "name": "refund",
      "outputs": [],
      "stateMutability": "nonpayable",
      "type": "function"
    }
  ],
  "bytecode": "0x60806040523480156200001157600080fd5b50604051620016df380380620016df83398181016040528101906200003791906200023b565b84848484836000908051906020019062000053929190620000eb565b5082600190805190602001906200006c929190620000eb565b5081600260006101000a81548160ff021916908360ff16021790555080600381905550600354600460003373ffffffffffffffffffffffffffffffffffffffff1673ffffffffffffffffffffffffffffffffffffffff16815260200190815260200160002081905550505050508060058190555050505050506200046b565b828054620000f990620003a3565b90600052602060002090601f0160209004810192826200011d576000855562000169565b82601f106200013857805160ff191683800117855562000169565b8280016001018555821562000169579182015b82811115620001685782518255916020019190600101906200014b565b5b5090506200017891906200017c565b5090565b5b80821115620001975760008160009055506001016200017d565b5090565b6000620001b2620001ac8462000323565b620002ef565b905082815260208101848484011115620001cb57600080fd5b620001d88482856200036d565b509392505050565b600082601f830112620001f257600080fd5b8151620002048482602086016200019b565b91505092915050565b6000815190506200021e8162000437565b92915050565b600081519050620002358162000451565b92915050565b600080600080600060a086880312156200025457600080fd5b600086015167ffffffffffffffff8111156200026f57600080fd5b6200027d88828901620001e0565b955050602086015167ffffffffffffffff8111156200029b57600080fd5b620002a988828901620001e0565b9450506040620002bc8882890162000224565b9350506060620002cf888289016200020d565b9250506080620002e2888289016200020d565b9150509295509295909350565b6000604051905081810181811067ffffffffffffffff8211171562000319576200031862000408565b5b8060405250919050565b600067ffffffffffffffff82111562000341576200034062000408565b5b601f19601f8301169050602081019050919050565b6000819050919050565b600060ff82169050919050565b60005b838110156200038d57808201518184015260208101905062000370565b838111156200039d576000848401525b50505050565b60006002820490506001821680620003bc57607f821691505b60208210811415620003d357620003d2620003d9565b5b50919050565b7f4e487b7100000000000000000000000000000000000000000000000000000000600052602260045260246000fd5b7f4e487b7100000000000000000000000000000000000000000000000000000000600052604160045260246000fd5b620004428162000356565b81146200044e57600080fd5b50565b6200045c8162000360565b81146200046857600080fd5b50565b611264806200047b6000396000f3fe6080604052600436106100c25760003560e01c80637a3a0e841161007f578063a6a3b5b411610059578063a6a3b5b414610248578063a9059cbb14610273578063d7bb99ba146102b0578063fa89401a146102ba576100c2565b80637a3a0e84146101c75780637d3d6522146101f257806395d89b411461021d576100c2565b806306fdde03146100c757806318160ddd146100f2578063313ce5671461011d5780634900c882146101485780636681b9fd1461015f57806370a082311461018a575b600080fd5b3480156100d357600080fd5b506100dc6102e3565b6040516100e99190610ee2565b60405180910390f35b3480156100fe57600080fd5b50610107610371565b6040516101149190610fe4565b60405180910390f35b34801561012957600080fd5b50610132610377565b60405161013f9190610fff565b60405180910390f35b34801561015457600080fd5b5061015d61038a565b005b34801561016b57600080fd5b506101746103f7565b6040516101819190610fe4565b60405180910390f35b34801561019657600080fd5b506101b160048036038101906101ac9190610ae6565b6103fd565b6040516101be9190610fe4565b60405180910390f35b3480156101d357600080fd5b506101dc610415565b6040516101e99190610fe4565b60405180910390f35b3480156101fe57600080fd5b5061020761041b565b6040516102149190610ec7565b60405180910390f35b34801561022957600080fd5b5061023261042e565b60405161023f9190610ee2565b60405180910390f35b34801561025457600080fd5b5061025d6104bc565b60405161026a9190610ec7565b60405180910390f35b34801561027f57600080fd5b5061029a60048036038101906102959190610b0f565b6104cf565b6040516102a79190610ec7565b60405180910390f35b6102b8610723565b005b3480156102c657600080fd5b506102e160048036038101906102dc9190610ae6565b61088e565b005b600080546102f090611148565b80601f016020809104026020016040519081016040528092919081815260200182805461031c90611148565b80156103695780601f1061033e57610100808354040283529160200191610369565b820191906000526020600020905b81548152906001019060200180831161034c57829003601f168201915b505050505081565b60035481565b600260009054906101000a900460ff1681565b600760009054906101000a900460ff16156103da576040517f08c379a00000000000000000000000000000000000000000000000000000000081526004016103d190610fa4565b60405180910390fd5b6001600760016101000a81548160ff021916908315150217905550565b60065481565b60046020528060005260406000206000915090505481565b60055481565b600760009054906101000a900460ff1681565b6001805461043b90611148565b80601f016020809104026020016040519081016040528092919081815260200182805461046790611148565b80156104b45780601f10610489576101008083540402835291602001916104b4565b820191906000526020600020905b81548152906001019060200180831161049757829003601f168201915b505050505081565b600760019054906101000a900460ff1681565b60008073ffffffffffffffffffffffffffffffffffffffff168373ffffffffffffffffffffffffffffffffffffffff161415610540576040517f08c379a000000000000000000000000000000000000000000000000000000000815260040161053790610f84565b60405180910390fd5b600460003373ffffffffffffffffffffffffffffffffffffffff1673ffffffffffffffffffffffffffffffffffffffff168152602001908152602001600020548211156105c2576040517f08c379a00000000000000000000000000000000000000000000000000000000081526004016105b990610f44565b60405180910390fd5b81600460003373ffffffffffffffffffffffffffffffffffffffff1673ffffffffffffffffffffffffffffffffffffffff1681526020019081526020016000205461060d919061108c565b600460003373ffffffffffffffffffffffffffffffffffffffff1673ffffffffffffffffffffffffffffffffffffffff1681526020019081526020016000208190555081600460008573ffffffffffffffffffffffffffffffffffffffff1673ffffffffffffffffffffffffffffffffffffffff1681526020019081526020016000205461069b9190611036565b600460008573ffffffffffffffffffffffffffffffffffffffff1673ffffffffffffffffffffffffffffffffffffffff168152602001908152602001600020819055507fddf252ad1be2c89b69c2b068fc378daa952ba7f163c4a11628f55a4df523b3ef33848460405161071193929190610e67565b60405180910390a16001905092915050565b600760009054906101000a900460ff1615610773576040517f08c379a000000000000000000000000000000000000000000000000000000000815260040161076a90610f24565b60405180910390fd5b600760019054906101000a900460ff16156107c3576040517f08c379a00000000000000000000000000000000000000000000000000000000081526004016107ba90610fc4565b60405180910390fd5b346006546107d19190611036565b600681905550600554600654106107fe576001600760006101000a81548160ff0219169083151502179055505b3073ffffffffffffffffffffffffffffffffffffffff1663a9059cbb33346040518363ffffffff1660e01b8152600401610839929190610e9e565b602060405180830381600087803b15801561085357600080fd5b505af1158015610867573d6000803e3d6000fd5b505050506040513d601f19601f8201168201806040525081019061088b9190610b4b565b50565b600760019054906101000a900460ff166108dd576040517f08c379a00000000000000000000000000000000000000000000000000000000081526004016108d490610f64565b60405180910390fd5b6000600460008373ffffffffffffffffffffffffffffffffffffffff1673ffffffffffffffffffffffffffffffffffffffff168152602001908152602001600020541161095f576040517f08c379a000000000000000000000000000000000000000000000000000000000815260040161095690610f04565b60405180910390fd5b3073ffffffffffffffffffffffffffffffffffffffff1663a9059cbb82600460008573ffffffffffffffffffffffffffffffffffffffff1673ffffffffffffffffffffffffffffffffffffffff168152602001908152602001600020546040518363ffffffff1660e01b81526004016109d9929190610e9e565b602060405180830381600087803b1580156109f357600080fd5b505af1158015610a07573d6000803e3d6000fd5b505050506040513d601f19601f82011682018060405250810190610a2b9190610b4b565b507fbb28353e4598c3b9199101a66e0989549b659a59a54d2c27fbb183f1932c8e6d81600460008473ffffffffffffffffffffffffffffffffffffffff1673ffffffffffffffffffffffffffffffffffffffff16815260200190815260200160002054604051610a9c929190610e9e565b60405180910390a150565b600081359050610ab6816111e9565b92915050565b600081519050610acb81611200565b92915050565b600081359050610ae081611217565b92915050565b600060208284031215610af857600080fd5b6000610b0684828501610aa7565b91505092915050565b60008060408385031215610b2257600080fd5b6000610b3085828601610aa7565b9250506020610b4185828601610ad1565b9150509250929050565b600060208284031215610b5d57600080fd5b6000610b6b84828501610abc565b91505092915050565b610b7d816110c0565b82525050565b610b8c816110d2565b82525050565b6000610b9d8261101a565b610ba78185611025565b9350610bb7818560208601611115565b610bc0816111d8565b840191505092915050565b6000610bd8602483611025565b91507f436f6e7472696275746f7220686173206e6f2062616c616e636520746f20726560008301527f66756e64000000000000000000000000000000000000000000000000000000006020830152604082019050919050565b6000610c3e602583611025565b91507f46756e64696e6720676f616c2068617320616c7265616479206265656e20726560008301527f61636865640000000000000000000000000000000000000000000000000000006020830152604082019050919050565b6000610ca4601483611025565b91507f496e73756666696369656e742062616c616e63650000000000000000000000006000830152602082019050919050565b6000610ce4602183611025565b91507f526566756e6420706572696f6420686173206e6f74207374617274656420796560008301527f74000000000000000000000000000000000000000000000000000000000000006020830152604082019050919050565b6000610d4a601f83611025565b91507f43616e6e6f74207472616e7366657220746f207a65726f2061646472657373006000830152602082019050919050565b6000610d8a604083611025565b91507f43616e6e6f7420737461727420726566756e6420706572696f6420626563617560008301527f73652066756e64696e6720676f616c20686173206265656e20726561636865646020830152604082019050919050565b6000610df0602183611025565b91507f526566756e6420706572696f642068617320616c72656164792073746172746560008301527f64000000000000000000000000000000000000000000000000000000000000006020830152604082019050919050565b610e52816110fe565b82525050565b610e6181611108565b82525050565b6000606082019050610e7c6000830186610b74565b610e896020830185610b74565b610e966040830184610e49565b949350505050565b6000604082019050610eb36000830185610b74565b610ec06020830184610e49565b9392505050565b6000602082019050610edc6000830184610b83565b92915050565b60006020820190508181036000830152610efc8184610b92565b905092915050565b60006020820190508181036000830152610f1d81610bcb565b9050919050565b60006020820190508181036000830152610f3d81610c31565b9050919050565b60006020820190508181036000830152610f5d81610c97565b9050919050565b60006020820190508181036000830152610f7d81610cd7565b9050919050565b60006020820190508181036000830152610f9d81610d3d565b9050919050565b60006020820190508181036000830152610fbd81610d7d565b9050919050565b60006020820190508181036000830152610fdd81610de3565b9050919050565b6000602082019050610ff96000830184610e49565b92915050565b60006020820190506110146000830184610e58565b92915050565b600081519050919050565b600082825260208201905092915050565b6000611041826110fe565b915061104c836110fe565b9250827fffffffffffffffffffffffffffffffffffffffffffffffffffffffffffffffff038211156110815761108061117a565b5b828201905092915050565b6000611097826110fe565b91506110a2836110fe565b9250828210156110b5576110b461117a565b5b828203905092915050565b60006110cb826110de565b9050919050565b60008115159050919050565b600073ffffffffffffffffffffffffffffffffffffffff82169050919050565b6000819050919050565b600060ff82169050919050565b60005b83811015611133578082015181840152602081019050611118565b83811115611142576000848401525b50505050565b6000600282049050600182168061116057607f821691505b60208210811415611174576111736111a9565b5b50919050565b7f4e487b7100000000000000000000000000000000000000000000000000000000600052601160045260246000fd5b7f4e487b7100000000000000000000000000000000000000000000000000000000600052602260045260246000fd5b6000601f19601f8301169050919050565b6111f2816110c0565b81146111fd57600080fd5b50565b611209816110d2565b811461121457600080fd5b50565b611220816110fe565b811461122b57600080fd5b5056fea2646970667358221220022ce33cda18fc30c5726881f011b8cceaa6b982b8fa173c861515c74a0e5bd564736f6c63430008000033",
  "immutableReferences": {},
  "source": "// SPDX-License-Identifier: Sepehr\r\npragma solidity ^0.8.0;\r\n\r\n// Custom ERC20 token\r\ncontract Token {\r\n    // Token metadata\r\n    string public name;\r\n    string public symbol;\r\n    uint8 public decimals;\r\n    uint256 public totalSupply;\r\n\r\n    // Constructor function to initialize the token\r\n    constructor(\r\n    string memory _name,\r\n    string memory _symbol,\r\n    uint8 _decimals,\r\n    uint256 _totalSupply\r\n    ) {\r\n    // Set the token metadata\r\n    name = _name;\r\n    symbol = _symbol;\r\n    decimals = _decimals;\r\n    totalSupply = _totalSupply;\r\n\r\n    // Give the entire supply of tokens to the contract owner\r\n    balanceOf[msg.sender] = totalSupply;\r\n}\r\n\r\n    // Mapping to store the balance of each address\r\n    mapping(address => uint256) public balanceOf;\r\n\r\n    event Transfer(address from, address to, uint256 value);\r\n\r\n    // Function to transfer tokens to another address\r\n    function transfer(address _to, uint256 _value) public returns (bool) {\r\n        // Reject transfers to the zero address\r\n        require(_to != address(0), \"Cannot transfer to zero address\");\r\n\r\n        // Check that the sender has enough balance to make the transfer\r\n        require(_value <= balanceOf[msg.sender], \"Insufficient balance\");\r\n\r\n        // Subtract the value from the sender's balance and add it to the recipient's balance\r\n        balanceOf[msg.sender] = balanceOf[msg.sender] - _value;\r\n        balanceOf[_to] = balanceOf[_to] + _value;\r\n\r\n        // Emit the Transfer event\r\n        emit Transfer(msg.sender, _to, _value);\r\n\r\n        return true;\r\n    }\r\n}\r\n\r\n// Crowdfunding contract\r\ncontract Crowdfund is Token {\r\n    // Funding goal in units of the token\r\n    uint256 public fundingGoal;\r\n\r\n    // Current amount of funds raised\r\n    uint256 public fundsRaised;\r\n\r\n    // Flag to indicate if the goal has been reached\r\n    bool public goalReached;\r\n\r\n    // Set to true when refund period has started\r\n    bool public refundPeriod;\r\n\r\n    // Constructor function to initialize the crowdfund contract\r\n    constructor(\r\n    string memory _name,\r\n    string memory _symbol,\r\n    uint8 _decimals,\r\n    uint256 _totalSupply,\r\n    uint256 _fundingGoal) \r\n    \r\n    Token(_name, _symbol, _decimals, _totalSupply) {\r\n    // Set the funding goal\r\n    fundingGoal = _fundingGoal;\r\n    }\r\n\r\n    // Modifier to check if the refund period has started\r\n    modifier refundAllowed() {\r\n        require(refundPeriod, \"Refund period has not started yet\");\r\n        _;\r\n    }\r\n\r\n    // Modifier to check if the funding goal has been reached\r\n    modifier goalNotReached() {\r\n        require(!goalReached, \"Funding goal has already been reached\");\r\n        _;\r\n    }\r\n\r\n    // Function to contribute to the crowdfund campaign\r\n    function contribute() public payable {\r\n        // Check that the funding goal has not already been reached\r\n        require(!goalReached, \"Funding goal has already been reached\");\r\n            // Check that the refund period has not started yet\r\n        require(!refundPeriod, \"Refund period has already started\");\r\n\r\n        // Add the contribution amount to the total funds raised\r\n        fundsRaised = fundsRaised + msg.value;\r\n\r\n        // Check if the funding goal has been reached\r\n        if (fundsRaised >= fundingGoal) {\r\n            goalReached = true;\r\n        }\r\n\r\n        // Transfer the contribution amount to the contract in the form of the custom token\r\n        Token(address(this)).transfer(msg.sender, msg.value);\r\n    }\r\n\r\n    // Function to start the refund period\r\n    function startRefundPeriod() public {\r\n        // Check that the funding goal has not been reached\r\n        require(!goalReached, \"Cannot start refund period because funding goal has been reached\");\r\n\r\n        // Set the refund period flag to true\r\n        refundPeriod = true;\r\n    }\r\n\r\n    event Refund(address contributor, uint256 value);\r\n    // Function to refund a contributor\r\n    function refund(address _contributor) public refundAllowed {\r\n        // Check that the contributor has a balance of the custom token in the contract\r\n        require(balanceOf[_contributor] > 0, \"Contributor has no balance to refund\");\r\n\r\n        // Transfer the tokens back to the contributor\r\n        Token(address(this)).transfer(_contributor, balanceOf[_contributor]);\r\n\r\n        // Emit the Refund event\r\n        emit Refund(_contributor, balanceOf[_contributor]);\r\n    }\r\n    \r\n    \r\n}\r\n\r\n\r\n\r\n",
  "sourcePath": "C:\\Users\\Sepehr\\Smart Contracts\\Crowdfund\\contracts\\Crowdfunding.sol",
  "compiler": {
    "name": "solc",
    "version": "0.8.0+commit.c7dfd78e.Emscripten.clang"
  },
  "schemaVersion": "3.4.11",
  "updatedAt": "2023-01-24T23:25:19.718Z",
  "devdoc": {
    "kind": "dev",
    "methods": {},
    "version": 1
  },
  "userdoc": {
    "kind": "user",
    "methods": {},
    "version": 1
  }
}